:04000005080000A946
:020000040800F2
:10000000780B002071010008790100087B010008CD
:1000100053520000110000002A14000000000000EC
:100020000000000000000000000000007D0100084A
:1000300000000000000000007F010008C11500085A
:1000400083010008E50A0008050B00088301000889
:100050008301000883010008830100088301000870
:100060008301000883010008830100088301000860
:1000700083010008391600080511000883010008F3
:10008000830100088301000883010008ED280008AF
:100090008301000883010008652900088301000826
:1000A000830100087509000800F002F800F034F838
:1000B0000CA030C8083824182D18A246671EAB467D
:1000C00054465D46AC4201D100F026F87E460F3E14
:1000D0000FCCB6460126334200D0FB1AA246AB46EF
:1000E0003343184738700000587000000023002484
:1000F00000250026103A01D378C1FBD8520700D35F
:1001000030C100D50B6070471FB50098019900F011
:1001100042FA1FBD10B510BD00F001FB1146FFF7FC
:10012000F3FF04F071FA00F019FB03B4FFF7F2FFDC
:1001300003BC00F079FB000070B505460C4616467E
:1001400002E00FCC0FC5103E102EFAD2082E02D3BB
:1001500003CC03C5083E042E07D301CC01C5361FCE
:1001600003E021782970641C6D1C761EF9D270BDE5
:100170000748804707480047FEE7FEE7FEE7FEE73F
:10018000FEE7FEE704480549054A064B70470000B4
:1001900031160008A900000878070020780B00201D
:1001A000780900207809002070B5064600F0D6F9DD
:1001B000056830460B30C408E400B44201D8002082
:1001C00070BD68682A46002818D00168A14211D382
:1001D0000B46214608318B4208D3436801194B6016
:1001E00003681B1B0B605160046001E041685160B3
:1001F000001D70BD024640680028E6D12146284611
:1002000000F0B4F90028DCD170BD70B50446051FBC
:1002100000F0A4F90068002C1AD0446801E02046E0
:100220006468002C01D0AC42F9D301680A18AA42D4
:1002300004D12A6805468918016000E045602868F5
:100240004119A14205D161686960216840182860A0
:1002500070BD6C6070BD034610B50B439B070FD19A
:10026000042A0DD308C810C9121FA342F8D018BA27
:1002700021BA884201D9012010BD0020C04310BD21
:10028000002A03D0D30703D0521C07E0002010BD82
:1002900003780C78401C491C1B1B07D103780C7891
:1002A000401C491C1B1B01D1921EF1D1184610BDE8
:1002B000F8B5042A2CD3830712D00B78491C03709D
:1002C000401C521E83070BD00B78491C0370401C46
:1002D000521E830704D00B78491C0370401C521E29
:1002E0008B079B0F05D0C91ADF002023DE1B08C92E
:1002F0000AE0FFF721FFF8BD1D4608C9FD401C4676
:10030000B4402C4310C0121F042AF5D2F308C91AB6
:10031000521EF0D40B78491C0370401C521EEAD4C4
:100320000B78491C0370401C012AE4D40978017041
:10033000F8BD01E004C0091F0429FBD28B0701D5D9
:100340000280801CC90700D00270704700290BD0C2
:10035000C30702D00270401C491E022904D3830740
:1003600002D50280801C891EE3E70022EEE700220E
:10037000DFE70378C2781946437812061B02194357
:100380008378C0781B04194311430902090A000647
:1003900008437047020A08704A70020C8A70020E05
:1003A000CA707047002203098B422CD3030A8B4288
:1003B00011D300239C464EE003460B433CD400225D
:1003C00043088B4231D303098B421CD3030A8B426F
:1003D00001D394463FE0C3098B4201D3CB01C01A3D
:1003E000524183098B4201D38B01C01A5241430908
:1003F0008B4201D34B01C01A524103098B4201D3F6
:100400000B01C01A5241C3088B4201D3CB00C01A62
:10041000524183088B4201D38B00C01A52414308DA
:100420008B4201D34B00C01A5241411A00D20146FF
:100430005241104670475DE0CA0F00D04942031098
:1004400000D34042534000229C4603098B422DD3E7
:10045000030A8B4212D3FC22890112BA030A8B428F
:100460000CD3890192118B4208D3890192118B42DE
:1004700004D389013AD0921100E08909C3098B4263
:1004800001D3CB01C01A524183098B4201D38B01A6
:10049000C01A524143098B4201D34B01C01A524149
:1004A00003098B4201D30B01C01A5241C3088B428E
:1004B00001D3CB00C01A524183088B4201D38B0079
:1004C000C01A5241D9D243088B4201D34B00C01A03
:1004D0005241411A00D20146634652415B10104618
:1004E00001D34042002B00D54942704763465B1060
:1004F00000D3404201B50020C046C04602BD70474F
:10050000704770471F22030C02D10F22000402D053
:10051000030E03D004E00020014670470002083AB1
:10052000030F01D10001121F830F01D18000921E21
:10053000002801DB4000521E120551184205C0126E
:10054000411810467047C10FC90700D04042012230
:1005500092071143D6E701218907D3E70048704786
:100560001C070020704770477047704738B5044635
:100570000A4600206946C046C046002805D002460B
:100580002046009900F088F8012038BD10B5012000
:1005900000F09CF810BDF8B5C046C04605460020E6
:1005A0000C461020C0460646A819A0420DD9324676
:1005B00069460020C046C046070001D100F086F819
:1005C0000098A04200D00546C419FFF7C7FFF61DEA
:1005D00007460560F008C0004619284600F008F8F4
:1005E000B44204D031463868A21B00F055F8F8BD7B
:1005F000002101604160806070471020704700005A
:10060000F8B5224C4E00069DA6420AD8A64201D15A
:10061000002806D15E00A64203D8A6420AD1002ACD
:1006200008D00D24240425422CD02946002000F0B7
:1006300053F8F8BD0C461C430CD4994202D0EFF39A
:100640000080F8BD904202D0EFF30080F8BDEFF3D8
:100650000080F8BD09242407E5008B4206D0EFF3A3
:100660000080A043591A06D2284304E0101A05D38B
:10067000EFF30080A04380F30088F8BDEFF3008023
:10068000A043F1E7009500F03FF8F8BD0000E0FF5F
:10069000004870471407002010B50346406801E089
:1006A00003464068002801D08842F9D31868C3186F
:1006B0008B4206D0CB1CD808C000001D411A521A2C
:1006C0000146081D0A60FFF7A0FD10BD10B500F03F
:1006D00053F800F04BF810BDC80212D54803400F84
:1006E000002804D0C803C043012188407047EFF3BD
:1006F00000800001000903210907084380F30088F6
:10070000704700207047000010B500200249029A8F
:1007100000F05AF810BD00000000F87F70477546E1
:10072000FFF7B6FFAE46050069465346C008C00055
:10073000854618B020B5FFF725FD60BC00274908A5
:10074000B6460026C0C5C0C5C0C5C0C5C0C5C0C569
:10075000C0C5C0C5403D49008D46704710B5044630
:10076000C046C0462046FFF7E0FC10BD10B500288B
:1007700001D000F059F810BD10B5012805D00021B6
:1007800003A000F057F8012010BD09A1F8E7000010
:1007900053494752544D454D3A204F7574206F666A
:1007A0002068656170206D656D6F727900000000D2
:1007B0003A2048656170206D656D6F727920636FB6
:1007C000727275707465640010B50C461107090FDC
:1007D000092904D00A290AD008290CD104E01146BD
:1007E0000820FFF779FF06E0510606D501E0510623
:1007F00001D50120C007214610BDD10607D5010152
:100800000909CC084907000E0006044309E0410F1E
:1008100020024907000A0143200E00061D22D14193
:1008200001430846E7E7000001491820ABBEFEE798
:100830002600020070B505460C460A2000E06D1C3B
:1008400000F012F8002D06D028780028F7D102E039
:10085000641C00F009F8002C02D020780028F7D1A1
:100860000A2000F001F870BD08B569460870032041
:10087000ABBE08BD70B58C180578401C6B075B0FCC
:1008800001D10378401C2A1106D10278401C03E0F4
:100890000678401C0E70491C5B1EF9D12B0705D44D
:1008A0000023521E0DD40B70491CFAE70378401C3C
:1008B000CB1A921C03E01D780D70491C5B1C521E64
:1008C000F9D5A142D8D3002070BD0000FEB50026A6
:1008D00006250322244902A8FFF7EAFC224A521EF9
:1008E0001479E217520F1219D110204A128890B2CF
:1008F00005F09CFC01900199C8B205F0BBFE803860
:1009000047B2384602F052FA4006040E6846817A31
:10091000204605F091FC014668468172807A0028E5
:1009200008D1F021124800881430FFF745FD88B245
:100930000F4908800E48007869460872029805F051
:10094000C5F90090344608E068468378427801781B
:10095000204605F0CFFA601CC4B2AC42F4DB284656
:1009600005F035F9FEBD0000A2000020B000002017
:10097000B4000020F8B5002400272D488068042129
:100980000840002805D004202949C86000202949D2
:1009900008602748806802210840002805D002200E
:1009A0002349C86000202349086021488068C007A7
:1009B000C00F00283BD001201D49C8601D480068B9
:1009C000401C1C4908601C48006B401C00282ED1AC
:1009D0000846006803282AD30020086014480068ED
:1009E0008003840D002715484068154988420BD1C3
:1009F0001248008811494988C94389B2884208D100
:100A00000E480088271A04E00E48C0688005800D53
:100A1000271A3846FFF797FD490049080546002286
:100A2000094B06F063F902D2012008490860F8BDBD
:100A3000006C0040F4000020C0FAFF1F00F7FF1F09
:100A400069E5B5A300F8FF1F00002440F000002076
:100A500010B504460249204602F0E6FE10BD000033
:100A6000650A000807B51E204843801AC3B26846CD
:100A700003700088034668468078000418430EBD62
:100A800010B504460249204602F082FE10BD000067
:100A9000950A00087FB5089C5D005819C50F2D18F0
:100AA0006D102D19EEB26D462E7068460088054611
:100AB000684680780004284304B070BDF8B5074646
:100AC00000260625344607E000231A46194620462C
:100AD00005F010FA601CC4B2AC42F5DB284605F004
:100AE00076F8F8BD10B50648406902210840002894
:100AF00004D002200249486103F0EEF910BD000065
:100B00000004014010B508480078002804D003F024
:100B10001DFF0020044908700120044908700448A2
:100B20004469446110BD0000A5010020A40100201B
:100B30000004014001494861704700000004014081
:100B4000014948617047000000040140002120492C
:100B50008279002A35D00A46126803689A430B4608
:100B60001A600A46526803689A430B465A60027933
:100B700051180A6803681A430A60154A92680368A4
:100B80009A43134B9A601A46D26803689A43104BF3
:100B9000DA604279102A0CD11A46926803681A4327
:100BA0000B4B9A601A46D26803681A43084BDA6006
:100BB0000DE00749427951180A6803681A430A6030
:100BC00005E0027951180A6803689A430A60704781
:100BD000000401400021016001710C2141710021DC
:100BE0008171704711494969062211430F4A5161C9
:100BF000022191601146C8608968042211430B4AA2
:100C0000916000BF09494969C907C90F0029F9D195
:100C10000649896889088900044A91601146496932
:100C200002221143014A5161704700000020024036
:100C300010B5014600BFEFF31080024672B60023E4
:100C40002148006810242040002805D001231E48B8
:100C50000068A0431C4C20601B48406906242043C8
:100C6000194C60610220A0602046C16080680424A5
:100C70002043154CA06000BF13484069C007C00F57
:100C80000028F9D110488068800880000E4CA060D0
:100C900020464069022420430B4C6061002B05D0A4
:100CA0002046006810242043074C2060002A00D111
:100CB00062B60548406904242040002801D0012084
:100CC00010BD0020FCE700000020024010B50446E3
:100CD0000120C00684420BD30648844208D200F0AB
:100CE000ABF82046FFF77EFF00F006F8012010BDAC
:100CF0000020FCE7008000080348806808210843C2
:100D000001498860704700000020024030B502466B
:100D100000BFEFF31080034672B60024214800683C
:100D200010252840002805D001241E480068A8434B
:100D30001C4D28601B48406906252843194D6861F1
:100D40000120A8602846C26001618068042528430C
:100D5000144DA86000BF13484069C007C00F0028A9
:100D6000F9D110488068800880000E4DA8602846A0
:100D70004069022528430B4D6861002C05D02846A8
:100D8000006810252843074D2860002B00D162B66B
:100D90000448406904252840002801D0012030BDC6
:100DA0000020FCE700200240FEB504460D4601206D
:100DB0000190A707BF0FE61BC00684420BD307486C
:100DC000844208D2306800906846C5553046009984
:100DD00000F006F801900198FEBD000000800008B8
:100DE00070B504460D460126F00684420AD3064833
:100DF000844207D200F020F82946204600F014FA79
:100E0000FFF77AFF304670BD0080000801460A46B1
:100E10001078704701460A461088704710B50246A0
:100E200013460020032104E000025C5C20434C1EBA
:100E300061B20029F8DA10BD02480349486003484E
:100E4000486070472301674500200240AB89EFCD21
:100E5000F7B582B0039B0024002501950095002181
:100E60001AE001258D401D40002D14D04E000325B1
:100E7000B5402C43082906D28E000F25B540019EAF
:100E80003543019507E00D46083DAE000F25B540FE
:100E9000009E35430095491C1029E2D385689D4387
:100EA000D602F60F76421E403543856045689D4365
:100EB000D601F60F76421E40354345600568A543CE
:100EC0009600B60F0F4F7E43264035430560C56838
:100ED000A5439603B60F7E4326403543C5601107F0
:100EE000090F094E7143056A019EB5430E40354313
:100EF0000562456A009EB5430E403543456205B024
:100F0000F0BD00005555555511111111FEB50026C3
:100F100006250322154901A8FFF7CAF91348401E08
:100F20000179402005F088F90746344617E00F485C
:100F3000401E417832206043001178430818C1B246
:100F400068460171019804F0C1FE009068468378FC
:100F500042780178204604F0CDFF601CC4B2AC4258
:100F6000E5DB284604F033FEFEBD0000A2000020B1
:100F700070B506460C46154608203040002801D0C2
:100F800001F012FC02203040002801D000F070FD7A
:100F900004203040002804D000202049087000F0D0
:100FA00055FDE007C00F002801D000F07FFD0220B2
:100FB0002040002801D001F0DDF904202040002865
:100FC00001D001F0EFF908202040002801D001F005
:100FD00001FA10202040002801D001F01FFA022061
:100FE0002840002801D001F0CBF904202840002837
:100FF00001D001F0DDF908202840002801D001F0DF
:10100000EFF910202840002801D001F00DFAF00778
:10101000C00F002801D000F039FD70BD060000208F
:101020000148024908607047AAAA00000030004049
:1010300000B501460846A838030001F0A1FC170DD1
:101040000F1113151B1F211D24272A2D2F32353870
:101050003B4217193E404500E22000BDE920FCE775
:10106000EA20FAE7B520F8E7B620F6E7B320F4E780
:10107000B420F2E7B720F0E7CC20EEE7CD20ECE794
:10108000FF208430E9E7FF208B30E6E7FF20933034
:10109000E3E7FF209530E0E70C48DEE70B48801CD3
:1010A000DBE789208000D8E70848001DD5E707481E
:1010B000401DD2E70548801DCFE76F20CDE77020A7
:1010C000CBE702480930C8E70020C6E7210200004C
:1010D00010B5094880680121490208430649886023
:1010E00014220649064804F00DF903F00BFB012019
:1010F00002F06EF910BD000040100240F80100201F
:10110000E801002010B50120800700688021084018
:10111000002876D0C80500688843C90508603948AA
:101120000068800038490858401C002813D0354812
:1011300000688000085C0107090F01208840000456
:10114000304909688900304A515809098902092241
:10115000D2068918886106212A480068401CFFF7DA
:1011600021F928480160FE200121890748610020FB
:10117000886100BF12E08100244A5158491C0029AF
:101180000AD0204909684A008918214A8918095C4F
:101190008200204B9A581160411CC8B20328EADB38
:1011A00003200FE08100194A5158491C002907D03B
:1011B000C11E174A1232515C8200164B9A581160B8
:1011C000411CC8B20628EDDB0E48006880000E49BD
:1011D0000858401C002812D00A4800688000085CAB
:1011E0000107090F01208840064909688900064A5D
:1011F0005158090989020922D2068918886103F029
:101200005FFC10BD9C000020286F0008406F0008A4
:10121000B0020020980200200320024908620C203E
:101220004862704700700040114A526906231A4311
:101230000F4B5A6101229A601A46D0601161926880
:1012400004231A430A4B9A6000BF094A5269D20725
:10125000D20F002AF9D1064A926892089200044BF4
:101260009A601A46526902231A43014B5A61704729
:1012700000200240002905D0054A92680243044B31
:101280009A6004E0024A92688243014B9A60704778
:1012900040100240002905D0054A12690243044B60
:1012A0001A6104E0024A12698243014B1A617047D5
:1012B00040100240012080070068402108430906D1
:1012C000086070471FB5074B0FCB6C460FC4062054
:1012D00000F0CEF80446A007000F6946085804B095
:1012E00010BD00001470000810B505F077F88421D7
:1012F000862000F0F5F8344805F0B4F926217F2067
:1013000000F0EEF82621052000F0EAF85A21092025
:1013100000F0E6F80E21282000F0E2F81021292044
:1013200000F0DEF800215B2000F0DAF81A214E20F0
:1013300000F0D6F800214F2000F0D2F800217020F4
:1013400000F0CEF801217E2000F0CAF8FF214020F5
:1013500000F0C6F8FF21412000F0C2F8FF21422032
:1013600000F0BEF8FF21432000F0BAF8AF2147207B
:1013700000F0B6F800214A2000F0B2F804214C2019
:1013800000F0AEF800214D2000F0AAF803214E2015
:1013900000F0A6F800217E2000F0A2F800217F20B6
:1013A00000F09EF80021092000F09AF88021052025
:1013B00000F096F88621062000F092F800210F2018
:1013C00000F08EF8012010BD307500001FB502201E
:1013D00000F04EF869460871032000F049F8014614
:1013E00068464171042000F043F801466846817167
:1013F000122000F03DF801466846C1710079802155
:101400000840C10968460170007940090121814303
:10141000684641704179C079F02210400011000205
:10142000014349B2684681708179C0790002014365
:1014300049B26846C17080780121C90208400101A3
:10144000684680781F22D2029043014349B2684621
:101450008170C0780121C902084001016846C07846
:101460009043014349B26846C170009804B010BD72
:1014700070B504466006400E04F0D0FF05462846CD
:1014800070BD70B5054617212846FEF78BFF84B264
:101490007F2C00DD7F245A21092000F021F826212D
:1014A0007F2000F01DF800217E2000F019F8802038
:1014B0002043C1B26E2000F013F8E1B26F2000F0BB
:1014C0000FF80021092000F00BF800217F2000F028
:1014D00007F870BD10B526217F2000F001F810BD7F
:1014E00070B504460D46642005F0BCF88021214308
:1014F00009022943084604F0EFFF70BDFEB5074618
:101500000026062503220C496846FEF7D1FE009806
:1015100004F0DCFB0190344608E0684683794279A8
:101520000179204604F0E6FC601CC4B2AC42F4DB56
:10153000284604F04CFBFEBDA200002030B500227E
:101540008B071C0F0F23A3401A460B4B8C10A400D3
:101550001B599343084C8D10AD00635123468C10EA
:10156000A4001B598C07250F0446AC402343024CB2
:101570008D10AD00635130BD040001407047000084
:1015800070B505460D48456100200C49886105206D
:10159000086100BF09480469FFF742FDE007C00F7A
:1015A000002804D00120000420400028F2D0034885
:1015B0000069400840000149086170BD00E000E09A
:1015C00010B504480068401C0249086005F09EF907
:1015D00010BD00008800002070B510484069002848
:1015E00004D0012804D0022806D103E00C4C05E009
:1015F0000C4C03E00C4C01E0094C00BF00BF074855
:10160000C0684006400E401C4008451C2946204644
:10161000FEF7C8FE0549086070BD000000100240DA
:10162000006A180000127A00006CDC020000002042
:1016300010B5FFF7A3FF10BD10B501210A4800F057
:1016400065F800280ED00121074800F03DF8074852
:1016500001780078401C054A1070B42902DD012091
:101660000349886010BD00000010004014010020F4
:10167000DC0200201CB501218802FFF7FBFD684653
:1016800000F06CF80120694608800D4801900D4873
:1016900000F05CF801210B4800F016F80122114619
:1016A000084800F046F800210D2001F08FFA0D20C7
:1016B00001F090F90121034800F00AF81CBD000078
:1016C000FFFF000000100040CA4392B20261704761
:1016D000002904D0026801231A43026003E0026873
:1016E000014B1A4002607047FEFF000010B504462F
:1016F0000548844207D101210015FFF7CBFD0021E9
:101700002015FFF7C7FD10BD0010004030B50246A0
:1017100000200023002415690D402B46D5680D409C
:101720002C46002B03D0002C01D0012000E000202B
:1017300030BD10B5002A03D0C3680B43C36004E07A
:10174000C368CC43A4B22340C36010BD4A68C262E0
:101750000A888262012242617047000002494160AA
:101760000021018070470000FFFF0000F0B587B046
:10177000002006900626604A1479E20F12195110D3
:101780005E4A128890B204F051FDC5B25C48007800
:10179000854203DB5A480078281A04E0584800784C
:1017A000FF21081A4019C0B240282FDD54480570A7
:1017B000544800214156701C81420CDB0020C0437C
:1017C00051490870F021514800781430FEF7F4FDBB
:1017D000C8B24E4908700698801E4A4900228A56AF
:1017E00090420BDB012048490870F02147480078FF
:1017F0001430FEF7E1FDC8B2444908704148007852
:1018000041490978401840B23E49087003223A49DC
:10181000491C05A8FEF74CFD3C4800786946087550
:10182000059804F053FA0490069844B25CE03548F9
:10183000002141568C4207D16F46BB7C7A7C397CB3
:10184000A0B204F057FB4DE02E49002008562E4967
:1018500000228A56801AA04217D16846877CF80F6A
:10186000C01943106846407CC10F0390081842100D
:101870006846007CC10F0290081840100190A0B289
:101880000090019904F036FB2CE01F4800214156DE
:1018900048001C4900228A56101AA0421CD16846F2
:1018A000807C0390C017810F039808188310684646
:1018B000407C0290C017810F029808188210684679
:1018C000077CF817800FC01980100190A0B200901B
:1018D000019904F00FFB05E0A0B201231A46194656
:1018E00004F008FB601C44B2B442A0DB304604F0B4
:1018F0006EF907B0F0BD0000A1000020B00000208C
:10190000B8000020B6000020B7000020B900002079
:10191000FEB5002002900626454A1479E20F1219FE
:101920005110444A128890B204F080FCC5B242487B
:101930000078854203DB40480078281A04E03E48DE
:101940000078FF21081A4019C0B2802813DD3A48F8
:101950000570F021394800781430FEF72DFDC8B22B
:101960003649087036480078002801D1012000E08F
:1019700000203349087003222D49491C01A8FEF7B5
:1019800097FC2E48007869460871019804F09EF98A
:101990000090029844B245E02046E10F0918491032
:1019A0004900611A1ED0264F3F78002F02D06F46A3
:1019B000BF7800E001273B46214F3F78002F02D03F
:1019C0006F467F7800E001273A461D4F3F78002F91
:1019D00002D06F463F7800E001273946A0B204F0FC
:1019E00089FA1DE0164F3F78002F02D16F46BF786D
:1019F00000E001273B46124F3F78002F02D16F468F
:101A00007F7800E001273A460D4F3F78002F02D142
:101A10006F463F7800E001273946A0B204F06AFA29
:101A2000601C44B2B442B7DB304604F0D0F8FEBDCF
:101A3000A1000020B0000020BA000020BB00002060
:101A4000BC00002010B500F06BFC10BD10B50120EB
:101A50000549C8710020487214210448FEF787FC2C
:101A600000F07AFE10BD000000800020D4010020AC
:101A700010B50548807C032805D100F08FFE024890
:101A8000C07C0149887410BDD401002010B50648FF
:101A9000807C032807D00448807C0349C874032055
:101AA000887400F01DFF10BDD401002070B5002027
:101AB000874988730846447C04202040002803D0CE
:101AC000002048748349087010202040002805D069
:101AD00080207F49487400207E4908707D48007846
:101AE000002847D1E007C00F002843D00025082276
:101AF0007949002000F052FA0020774988600846B2
:101B0000C08888810020C88108460078602108408C
:101B1000002802D100F064F90546002D02D100F042
:101B2000C1FC054600206A498873012D04D0022DAE
:101B300009D0032D15D10DE04020654948740120DE
:101B40006449087014E040206149487402206149EA
:101B500008700DE048205E49487400205D49087017
:101B600006E060205A49487403205A49087000BFB3
:101B700000BF00BF57480078012852D10220204002
:101B800000284ED15248447C10202040002803D029
:101B9000E007C00F002844D102244F4880894F49F4
:101BA0000978884214DA4C4882898168802000F0E4
:101BB00045FA4948C0894849898940184649C88139
:101BC00000208881082004430020424908701BE05F
:101BD0004148816841480278802000F02FFA3E4851
:101BE00080683E49097840183B49886008468089EA
:101BF0003A490978401A384988810846C0893749E6
:101C0000097840183449C8813348C0893249C988A5
:101C1000884204D10820044300202E4908702C4833
:101C200044742C480078022850D12948447CE007AD
:101C3000C00F00284AD040242748808927490978C6
:101C400088420FDA244882898168002000F0A6F9D2
:101C50002148C0892049898940181F49C88100202E
:101C600088811BE01C4881681C480278002000F035
:101C700095F919488068194909784018164988600B
:101C80000846808915490978401A13498881084611
:101C9000C0891249097840180F49C8810E488089C7
:101CA000002811D10820044300F0DCFB032805D0F4
:101CB0002020044303200749087002E00020054962
:101CC00008700020024988730148447470BD000008
:101CD0000080002006000020D4010020546D000880
:101CE00010B507484078092807D1012000F0DAFC38
:101CF000002801D0032010BD00BF00BF0020FAE77C
:101D0000D401002008B5354800786021084020281B
:101D10003FD132484078030000F032FE0C3A070E03
:101D2000193A3A3A3A3A242C333A00F08BFC00281C
:101D300001D0012008BD2BE02848C088012805D12A
:101D400000F06CFC002801D00120F3E720E02348DC
:101D5000C088012805D100F06BFC002801D00120CB
:101D6000E8E715E0002000F09DFC002801D00220EB
:101D7000E0E70DE000F082FC002801D00320D9E765
:101D800006E000F085FC002801D00320D2E700BF68
:101D900022E0124800786021084000281CD10F483A
:101DA0004078062818D10D4AD17810796A4600F09B
:101DB000B1FB0A4988600846806800280BD00846B5
:101DC000808969460988884203DD6846008803499E
:101DD00088810120AEE700BF0020ABE7D4010020DE
:101DE00010B547484078030000F0CAFD0C07128682
:101DF0001A86222D8638596477864148C088022881
:101E000005D100F07FF9002801D0012010BD74E059
:101E1000002000F0D1F9002801D00320F6E76CE0A3
:101E2000012000F0C9F9002801D00320EEE764E0AA
:101E300033480078002805D100F0A2F9002801D02D
:101E40000320E3E759E02E480078802805D100F010
:101E500011F9002801D00120D8E74EE02848007889
:101E600080281BD12648C088012817D12448807CAF
:101E7000002804D0012803D002280FD108E000BFB9
:101E800000202049088008461D4988600120BDE7E0
:101E90001B4810301A4988600120B7E72DE0184828
:101EA0000078002805D100F0BFF9002801D00320F8
:101EB000ACE722E01248007881280DD11048408814
:101EC000002809D10E48C088012805D100F008F982
:101ED000002801D0012099E70FE009480078012887
:101EE00009D10748C088002805D100F0DDF9002895
:101EF00001D003208AE700E000BF00BF002085E793
:101F0000D4010020040000200107090F00290CD093
:101F1000064A917380220240002A03D04022034BDC
:101F20005A7402E08022014B1A757047008000202D
:101F300001460A07120F002A0BD080200840002813
:101F400007D105488273C07D0002034B9B7D184377
:101F500070470020FCE700000080002001460A07CF
:101F6000120F002A15D00C488273802008400028E8
:101F700007D00948407C10231840002809D00120D0
:101F800070470548007D20231840002801D001201B
:101F9000F6E70020F4E700000080002030B50407D9
:101FA000A40E054D631904E01C780C70491C541EE6
:101FB000A2B2002AF8D130BD208000200107090F0D
:101FC00000290AD080220240002A06D1034A9173D8
:101FD000127D52085200014B1A7570470080002094
:101FE0000107090F00290CD0064A91738022024094
:101FF000002A03D01022034B5A7402E02022014B26
:102000001A75704700800020F0B504460E4617464A
:102010003A463146204600F011F825072D0F002DD5
:1020200008D080202040002804D003488573012078
:1020300001494874F0BD00000080002030B504075D
:10204000A40E054D631904E00C781C70491C541E45
:10205000A2B2002AF8D130BD2080002010B5142192
:102060000248FEF784F900F041FB10BDD4010020C6
:102070007047000008B51948C078012804D002282C
:1020800008D0032816D10DE0684600F03BFA13494A
:10209000886011E011498878694600F023FA0F49F9
:1020A000886009E00D498878694600F0A7FA0B4975
:1020B000886001E0002008BD00BF08488068002853
:1020C00000D1F8E70548808969460988884203DD20
:1020D00068460088014988810120ECE7D40100208E
:1020E00010B50748807C022808D1054804792046AD
:1020F00000F05CFA002801D0012010BD0020FCE7B0
:10210000D401002038B500201B4908801B48007806
:10211000C006C00E002804D001281BD0022822D1FE
:1021200019E01649087C694600F0DCF90446E079BC
:1021300040210840002802D001200F4908800F48A4
:10214000407C002805D00C480088022108430A4939
:1021500008800AE009E0094805792846FFF7FEFEF5
:102160000549088001E0002038BD00BF024803494E
:1021700088600120F8E7000004000020D40100205E
:102180000B4880784106490E0948807C02280CD013
:1021900008480170002903D00120054A907402E02C
:1021A0000020034A9074012070470020FCE70000E3
:1021B000D40100200080002070B505461948007841
:1021C000C006C00E002802D0022828D10EE0154813
:1021D0004088012809D1002D02D01249487402E03C
:1021E000002010494874012070BD18E00D48408857
:1021F000002813D10B4804792007000F00280DD0C8
:10220000002D03D0E0B2FFF7EBFE05E0E0B2FFF7F0
:102210007BFEE0B2FFF72CFF0120E5E700BF00BF27
:102220000020E1E7D401002010B51E488478807CAE
:10223000012802D0022831D110E0002C0BD020461A
:1022400000F0B4FA002808D016480474022015499A
:102250008874012010BD0120FCE720E0002C09D18A
:1022600000201049087401208874002000F030F824
:102270000120EFE70B48007CA0420CD00949087C04
:1022800000F026F8204600F091FA002805D0054815
:1022900004740120DEE70120DCE700E000BF00BF9E
:1022A0000020D7E7D401002070B50848807C0228C0
:1022B0000AD10648047985782946204600F0ECFAD0
:1022C000002801D0012070BD0020FCE7D4010020CF
:1022D0001249C97902229143104AD1711146C97934
:1022E000042291430D4AD1711146C97908229143C4
:1022F0000A4AD1711146C97910229143074AD17116
:102300001146497A08229143044A51721146497A8A
:1023100010229143014A5172704700000080002052
:1023200010B50F4880680121490208430C498860B4
:102330000C4A06210C48FEF78BFD0B48006B06216A
:102340008843094908630948C0690949084307499E
:10235000C8610120491048700720C87210BD0000F4
:102360004010024001000020000C00480000014025
:102370000000A48900200149086070474000002047
:102380000120064988730846007DC007C00F002859
:1023900002D0012002490860704700000080002040
:1023A00050000020002001490860704744000020D0
:1023B0000220064988730846007DC007C00F002828
:1023C00002D0012002490860704700000080002010
:1023D0005400002000200149086070474800002098
:1023E00010B503200A4988730846007DC007C00F56
:1023F00000280BD00320FFF79BFD04462246054929
:102400000320FFF7CBFD01200349086010BD000049
:10241000008000206C0300205800002000200149AB
:10242000086070474C00002010B504200A498873EA
:102430000846007DC007C00F00280BD00420FFF71E
:1024400077FD0446224605490420FFF7A7FD012039
:102450000349086010BD0000008000206C030020CC
:102460005C00002010B500240D4800784006400EA6
:10247000212812D10A48007900280BD00848007999
:10248000012807D006480079022803D004480079C3
:10249000042802D1FFF724FC0446204610BD0000AA
:1024A000D401002010B500240D480078C006C00EED
:1024B000012812D10A48007900280BD00848007979
:1024C000012807D006480079022803D00448007983
:1024D000042802D1FFF716FC0446204610BD000078
:1024E000D40100200246012A08DA0548C07800021B
:1024F000034B9B7818430880014870470020FCE795
:102500008D6E0008014612200880014870470000C7
:10251000387000080346002B0CD1212902D0222953
:1025200038D103E0092010801B48704747201080F5
:102530001A48FAE7012B0DD1212902D0222929D1ED
:1025400004E00920108014481930EEE75F20108065
:102550001348EAE7022B0DD1212902D0222919D1F3
:1025600004E0092010800C483230DEE76E20108035
:102570000C48DAE7042B0DD1212902D0222909D1F8
:1025800004E00920108004485230CEE72420108057
:102590000548CAE70020C8E79F6E0008556D00088F
:1025A0009C6D0008FB6D0008696E0008F8B50646D2
:1025B00000251AE069462846FFF794FF0446002CE0
:1025C00010D00C48007C617988420CD12079B0424F
:1025D00007DD002008490880084606498860012078
:1025E000F8BD04E003E0681CC5B2FF2DE2DD00BFCA
:1025F0000020F5E7D4010020040000200246032A51
:1026000007D29000044B18580078088090001858A2
:1026100070470020FCE700000C000020024803493E
:10262000886001207047000064000020D401002071
:1026300002480349886001207047000065000020BF
:10264000D40100200B480079022810D10948C07835
:1026500003280CD10748C088412803D00548C0880A
:10266000152804D1044803498860012070470020E0
:10267000FCE70000D4010020AD0300200248C07830
:102680000249087001207047D40100206400002036
:10269000024880780249087001207047D401002068
:1026A0006500002001460E480079022816D10C482A
:1026B000C078032812D10A48C088412803D00848AE
:1026C000C08815280AD1002904D10648044A906020
:1026D000012070470120044A1060FAE70020F8E763
:1026E000D40100206C0300206000002010B51748C2
:1026F000806801210905084314498860084600697B
:1027000001210905084311490861084600690121B2
:10271000090588430D49086101200C4940390863C7
:10272000C86200200A49C872C87148720021162088
:1027300000F05CF91620002805DBC206D20E01214C
:102740009140044A116000BF10BD000040100240DB
:102750000080002000E100E0012009494870C871B4
:102760000020487207490860074908600749086067
:10277000074908600749086007490860704700007A
:10278000008000204000002044000020480000207D
:102790004C000020580000205C000020012001496E
:1027A00008707047070000207047000010B504460D
:1027B000012C6DD137498873002088740820087473
:1027C000402048740820487448740846C0790221A3
:1027D00008433049C871022088730020887408209B
:1027E0000874402048740820487448740846C0792A
:1027F000042108432749C871032088730020887486
:10280000082008744020487408204874487408461A
:10281000C079082108431F49C8710420887300202B
:102820008874042008744020487408204874487450
:102830000846C079102108431649C87103208873DF
:10284000002048750820C87480200875102008757D
:1028500008750846407A082108430E49487204204A
:102860008873002048750420C874802008751020E3
:10287000087508750846407A1021084305494872D2
:102880000320FFF79BFB0420FFF798FB012010BDFE
:102890000020FCE700800020F8B506460F46002522
:1028A00016E069462846FFF71DFE0446002C0CD0B2
:1028B0000A48007C6179884208D12079B04203DD62
:1028C000002F01D10120F8BD04E003E0681CC5B26F
:1028D000FF2DE6DD00BF0020F5E70000D401002059
:1028E00001200149087070470800002010B5012040
:1028F0000005FEF725F918480078002808D1174888
:10290000406908210840002802D0012012490870BF
:102910001148007801280ED1104840690421084070
:10292000002808D002200C490870132000F036F867
:1029300001200B4908700848007800280BD107488F
:102940004069C007C00F002805D0132000F026F80A
:1029500001200349087010BD66000020800002407D
:102960000700002070B505488479857806793246DD
:1029700029462046FEF7FCFA70BD000000800020CA
:1029800030B47446641E2578641CAB4204D3635D86
:102990005B00E31830BC18471D46F8E7002815DB3C
:1029A000C206D20E01219140094A116000BF00BF4A
:1029B00000BFBFF34F8F00BF00BF00BF00BF00BF0D
:1029C00000BFBFF36F8F00BF00BF00BF70470000A4
:1029D00080E100E0002805DBC206D20E0121914013
:1029E000014A11607047000000E100E010B50028C6
:1029F00019DB1A4A03231B02D21883089B00D25802
:102A00008307DC0EFF23A3409A438B071B0E84072A
:102A1000E40EA3401A43114B032424021B1984081B
:102A2000A4001A5118E00E4A03071B0F083B9B082D
:102A30009B00D2588307DC0EFF23A3409A438B07E9
:102A40001B0E8407E40EA3401A43054B0407240F12
:102A5000083CA408A4001A5110BD000000E100E0E9
:102A60001CED00E010B5002819DB1A4A03231B02F5
:102A7000D21883089B00D2588307DC0EFF23A340A3
:102A80009A438B071B0E8407E40EA3401A43114B95
:102A9000032424021B198408A4001A5118E00E4ACA
:102AA00003071B0F083B9B089B00D2588307DC0ED3
:102AB000FF23A3409A438B071B0E8407E40EA34019
:102AC0001A43054B0407240F083CA408A4001A511C
:102AD00010BD000000E100E01CED00E010B5002892
:102AE00019DB1A4A03231B02D21883089B00D25811
:102AF0008307DC0EFF23A3409A438B071B0E84073A
:102B0000E40EA3401A43114B032424021B1984082A
:102B1000A4001A5118E00E4A03071B0F083B9B083C
:102B20009B00D2588307DC0EFF23A3409A438B07F8
:102B30001B0E8407E40EA3401A43054B0407240F21
:102B4000083CA408A4001A5110BD000000E100E0F8
:102B50001CED00E010B5002819DB1A4A03231B0204
:102B6000D21883089B00D2588307DC0EFF23A340B2
:102B70009A438B071B0E8407E40EA3401A43114BA4
:102B8000032424021B198408A4001A5118E00E4AD9
:102B900003071B0F083B9B089B00D2588307DC0EE2
:102BA000FF23A3409A438B071B0E8407E40EA34028
:102BB0001A43054B0407240F083CA408A4001A512B
:102BC00010BD000000E100E01CED00E010B50028A1
:102BD00019DB1A4A03231B02D21883089B00D25820
:102BE0008307DC0EFF23A3409A438B071B0E840749
:102BF000E40EA3401A43114B032424021B1984083A
:102C0000A4001A5118E00E4A03071B0F083B9B084B
:102C10009B00D2588307DC0EFF23A3409A438B0707
:102C20001B0E8407E40EA3401A43054B0407240F30
:102C3000083CA408A4001A5110BD000000E100E007
:102C40001CED00E010B5002819DB1A4A03231B0213
:102C5000D21883089B00D2588307DC0EFF23A340C1
:102C60009A438B071B0E8407E40EA3401A43114BB3
:102C7000032424021B198408A4001A5118E00E4AE8
:102C800003071B0F083B9B089B00D2588307DC0EF1
:102C9000FF23A3409A438B071B0E8407E40EA34037
:102CA0001A43054B0407240F083CA408A4001A513A
:102CB00010BD000000E100E01CED00E000BF00BF1F
:102CC00000BFBFF34F8F00BF00BF00BF06480749DA
:102CD000C86000BF00BF00BFBFF34F8F00BF00BF81
:102CE00000BF00BF00BFFDE70400FA0500ED00E0F3
:102CF000F7B582B0039B00240025019500950021C3
:102D00001AE001258D401D40002D14D04E000325F2
:102D1000B5402C43082906D28E000F25B540019EF0
:102D20003543019507E00D46083DAE000F25B5403F
:102D3000009E35430095491C1029E2D385689D43C8
:102D4000D602F60F76421E403543856045689D43A6
:102D5000D601F60F76421E40354345600568A5430F
:102D60009600B60F0F4F7E43264035430560C56879
:102D7000A5439603B60F7E4326403543C560110731
:102D8000090F094E7143056A019EB5430E40354354
:102D90000562456A009EB5430E403543456205B065
:102DA000F0BD00005555555511111111002801DADB
:102DB000414248B27047000010B51320FFF7EEFD06
:102DC00003201C4908620C20486200201A498861CF
:102DD0000846006801210843174908600120164988
:102DE0004039C86300BF144800698007800F01287C
:102DF000F9D1124880680121090508430F4988600C
:102E000001200E494039086300200A4908624862DF
:102E100011200B490860002008494039C860022091
:102E200048610120886107480749086003F080FD78
:102E300010BD0000007000408000024040100240C1
:102E400000200240006CDC02000000201CB50320C2
:102E5000494908620C2048624848806A01210843B9
:102E600046498862002000E0401CFF21F53188427D
:102E7000FAD300204049086248624149C86048616D
:102E8000012088613F484049086003F051FD03205C
:102E9000394908620C2048620020394908633848E3
:102EA00040308068012109058843354940318860F8
:102EB0003648C0680005000D3549884205D13348C1
:102EC000C0680004000F002813D100202B494031B6
:102ED000C86300BF294880300069022108400028EB
:102EE000F8D0002000E0401CFF21F5318842FAD3E1
:102EF00013E0224880300068400840001F498031BC
:102F0000086000201D494031C86300BF1B48803065
:102F100000698007800F0228F8D10D201749803101
:102F20008861002014490862486215484030806872
:102F30000121C9040843124940318860012000057D
:102F400000900021684601710821417101218171C1
:102F5000FDF7FCFD00200F49087001200005FDF77A
:102F6000EFFD1320002805DBC206D20E012191409F
:102F7000094A116000BF1CBD007000400000024003
:102F80000010024080841E000000002000FAFF1F95
:102F9000B50900006600002000E100E070B50446BD
:102FA0000D46002620780300FFF7EAFC0A06080D0C
:102FB0001217191E23292E30002628E0601C01F06C
:102FC00087FC064623E0601C01F036F806461EE04A
:102FD000601C00F07FF9064619E0002617E0601C2F
:102FE00000F038FA064612E0601C01F07DF9064652
:102FF0000DE02946601C00F05DFD064607E0601C00
:1030000003F026FE064602E0002600E000BF00BFF7
:10301000304600F088F970BDF8B504460D4600262C
:1030200041212846FDF7A1F9204602F079FB2078DE
:10303000ED2842D0EE286ED1112028706078222829
:103040002DD009DC801E0300FFF79AFC0A21171817
:103050001B1C343434222334402824D006DC23289B
:103060001ED024281DD0282824D11BE041281ED0A2
:1030700042281DD043281DD11BE01CE00820A87069
:1030800019E018E0284602F09FFA012613E012E04A
:1030900011E0A078012801D101F00EF90BE00AE05F
:1030A00009E008E007E0601C03F03CF903E002E0FF
:1030B00001E000E000BF00BF88E0122028706078C7
:1030C000572869D00EDC532827D006DC1A2811D0E7
:1030D000402821D0522875D15FE0542822D05528AD
:1030E00070D137E062380300FFF74AFC060506108E
:1030F000116C126C67E066E0A07802F073FA074684
:1031000040223946681CFDF7D3F85CE05BE05AE0EA
:103110000820A87057E058E055E0A178601C03F043
:1031200035F950E0A178201D01F0EAF90C222D4973
:103130002D48FDF7BDF8A17863221202881800F02F
:10314000F2F8A1784900284A50520C21104600F0AC
:10315000DBF938E0A178E01C01F0E4F8E078002821
:1031600001D1012000E00020C007C00F002812D0CC
:103170000C221C491C48FDF79BF8A178632212021F
:10318000881800F0D0F8A1784900174A50520C2155
:10319000104600F0B9F916E015E00C22114912486A
:1031A000FDF786F8A178201DFFF7F8FEA178490009
:1031B0000D4A50520C21104600F0A6F952202870FA
:1031C00001E0FFE700BF00BF00E000BF00BF002E2E
:1031D00001D11320287060786870284602F0AAFA9E
:1031E000F8BD00000A7C0008EE03002010B52F484F
:1031F0000068002804D12E480068002800D110BDC6
:103200002A480068002815D000202849086029496C
:103210002948FFF701FF27480078122805D14022EE
:1032200024498320FEF7F0FE04E015222149832083
:10323000FEF7EAFE1E480068002834D000201C4932
:1032400008601C491C4803F087FC0420FEF7B6FE0A
:10325000202218498420FEF7D7FE18480068184934
:10326000884220D1642000F0D7F8164816494862F9
:1032700000201249086000BF00BF00BF00BF00BFB0
:10328000BFF34F8F00BF00BF00BF10481049C86098
:1032900000BF00BF00BFBFF34F8F00BF00BF00BF24
:1032A00000BF00BFFDE700BFA9E7000060000020ED
:1032B0005C000020AD0300206C03002058010020BA
:1032C000A5A5A55AEB9C374A401002400400FA0518
:1032D00000ED00E001460878CD2818D008DC8328EE
:1032E00013D0B52817D0B62813D0B72817D114E0BB
:1032F000E22808D0E92802D0EA2810D101E0A9206C
:103300007047AA20FCE7A820FAE7AF20F8E7AE2034
:10331000F6E7AC20F4E7AB20F2E7AD20F0E700BF22
:1033200000BF0020ECE708B5014600916846007830
:1033300000026A465278104308BD0000FFB581B014
:103340001E46002700201D4908701D4800780028EF
:103350001FD000BF03F00EFB04461A4800688442E9
:1033600003D318480068201A04E01648006816497C
:10337000081A001985B2134804600127FF2D00DDEB
:10338000FF25002D04DDEBB201A807C803F07EFB8A
:1033900000BF002E03D10D48007800280AD0002F6E
:1033A00004D100BF03F0E6FA0649086001A807C887
:1033B00003F0ECFA0148007805B0F0BD960000205B
:1033C0009400002090000020FFFF000095000020E6
:1033D00070B504462146062251430846FCF7E4FE38
:1033E0000C4908600025002010E000210AE02B466F
:1033F0006D1C084E36689A191378FE26B343137075
:103400004A1CD1B20629F2DB411CC8B2A042ECDB57
:1034100070BD00008C00002070B5054603F0B0FAC6
:10342000044601E0FDF7FCFD03F0AAFAA04203D335
:1034300003F0A6FA001B05E003F0A2FA0021C9433D
:10344000091B4018A842EDD370BD00E0401E0028C3
:10345000FCD17047014600200A78012A04D0022AD4
:1034600004D0032A08D104E0054806E00448401CC3
:1034700003E00348801C00E000BF00BF704700006D
:103480000162000010B500F0B7FB002807D1044826
:1034900041690448884700F055F800F0BDFB10BDB5
:1034A000E86F0008007C000801468800014A801887
:1034B00070470000167C0008F8B505460E46012D41
:1034C00001DA062E01DB0020F8BD3146284600F067
:1034D0000FF804460548016820468847070203485C
:1034E0000168601C884707433846EDE7E86F00082D
:1034F0000246062050434000024BC0184B00C01843
:10350000704700000A7C0008F8B505460E460B48D7
:1035100041690B48884700F07FFB2F46002409E0F3
:103520003978074B0A33E018044BDA6890477F1C60
:10353000601C84B2B442F3DBF8BD0000E86F000801
:10354000007C000870B500240FE000250AE00C2381
:103550006343104E9B196E009A5BE9B2E0B200F033
:1035600039F86D1C062DF2DB641C012CEDDB002408
:103570000CE009494A88E0B2012100F00FF8064941
:103580000A88E0B2002100F009F8641C012CF0DB8D
:1035900070BD00002C700008246F0008F8B50746C5
:1035A0000C461546012F00DDF8BD3846FFF77CFFBD
:1035B0000646291263009819054BDA689047E9B26C
:1035C00063009B19581C024BDA68904700BFEBE779
:1035D000E86F0008F8B506460F461446012E01DADA
:1035E000062F00DBF8BD39463046FFF781FF054660
:1035F00021120548C26828469047E1B20248C268D5
:10360000681C904700BFEDE7E86F000810B502485E
:1036100041690248884710BDE86F0008007E000835
:103620001FB50446054B0FCB03936B4607C30E2211
:1036300069462046FCF73CFE1FBD0000087E0008DE
:103640007CB505460C4606206043064A81180622D2
:103650006846FCF72DFE062269462846FCF728FE40
:103660007CBD00001A7E000810B50248816802483F
:10367000884710BDE86F0008007E000810B50348B9
:10368000816803488847C0B210BD0000E86F000899
:10369000047E0008F0B5FFB082B005460E4617461E
:1036A000012252020E4901A8FCF746FD0C49791A85
:1036B00001AA881832462946FCF7FAFDFFF7A6FF53
:1036C000002408E001AB195D054BE018054BDA68F2
:1036D0009047601C84B2382CF4D37FB002B0F0BDA8
:1036E000007E0008E86F00081FB5034A0E216846F7
:1036F000FFF7D0FF1FBD0000087E000870B505462B
:103700000C46062060430349421806212846FFF76D
:10371000C1FF70BD1A7E000801B5034A0421684646
:10372000FFF7B8FF08BD0000007E000801B5034A9E
:1037300001216846FFF7AEFF08BD0000047E0008C7
:1037400010B51248007880088000401C0F490870AE
:1037500008460078FC21884314300C490870FF218A
:103760000A48C170C82009494870C82107488170BB
:10377000CC20064908710846FCF7FBFD0446FFF71C
:10378000CBFF02490879FFF7D1FF10BDA10000204F
:10379000F0B589B00E46002008900625204A14791D
:1037A000E20F121951101F4A128890B202F03EFD2A
:1037B000C0B20790089C2CE02946E020FCF7FCFDF5
:1037C000611C4843703807B2202006903A467A437D
:1037D00006994943511888B202F0BEFF0590079838
:1037E00003220F49491C009002A8FCF761FD3946ED
:1037F000059B069A0298B047039002F067FA04907E
:103800006846837C427C017C204602F073FB601C8E
:10381000C4B2AC42D0DB284602F0D9F909B0F0BD01
:10382000A1000020B0000020F0B585B00D460020BA
:103830000490062618490C79E117890F0919881098
:10384000012101F051FDC7B21449098888B23946F7
:1038500002F0ECFCC0B20390049C16E003220E4977
:10386000491C6846FCF724FD2146039A0098A847A6
:10387000019002F02BFA02906846837A427A017A2C
:10388000204602F037FB601CC4B2B442E6DB30468F
:1038900002F09DF905B0F0BDA1000020B0000020AD
:1038A00070B504460D46002D0AD02246FD210120A8
:1038B00002F0F0FF2246FD21002002F0EBFF09E0BC
:1038C0002246FC21012002F0E5FF2246FC210020D7
:1038D00002F0E0FF70BD000010B5002429E0A20056
:1038E0002B4B9A5C13071B0F01229A401146A20032
:1038F000274B9A58120992020923DB06D01801229D
:103900001204FFF7F5F9A200224B9A5C13071B0F74
:1039100001229A401146A2001E4B9A5812099202A7
:103920000923DB06D01801221204FFF7E1F9601C1D
:10393000C4B2012CD3DB002026E08100144A515888
:10394000090989020922D206891809698200104BE7
:103950009A5C1207120FD140CA07D20F81000D4B9B
:103960005958090989020923DB06C9180969830026
:10397000084CE35C1B071B0FD940C907890F0A439A
:1039800005490A54411CC8B20128D6DB10BD00000D
:10399000C0000020C4000020C800002070B5002531
:1039A00000243BE0A0001F490858000980020921BB
:1039B000C90640180069A1001A4A515C0907090F9D
:1039C000C840C007C00FA100174A51580909890211
:1039D0000922D20689180969A200134B9A5C1207C2
:1039E000120FD140C907890F084306460F48005DF2
:1039F0008007800FB0420FD00C48005D8006000E9B
:103A00000A4908550846005D304308550846015DDF
:103A1000204600F00DF80543601CC4B2012CC1DB48
:103A2000284670BDC0000020C4000020C80000204F
:103A3000F8B505460E4600272C46022000901B488C
:103A4000005D3107090F1A4A515C401840B217490E
:103A5000085508460057022808DA08460057B91EDC
:103A6000884203DDB007800F03281DD10F4800579F
:103A7000012804DB012701212846FFF711FF0B482D
:103A80000057002804DA012700212846FFF708FF25
:103A900006490857C10F091849104900411A034A3D
:103AA00011550020114608553846F8BDC9000020C0
:103AB000D76F000870B505460C46002621462846FB
:103AC000FFF71CFE192080022618304670BD00004A
:103AD0001CB502F055FF17490968884205D302F06A
:103AE0004FFF14490968401A07E002F049FF1149E5
:103AF00009680022D243511A40180F494988884268
:103B000017D90D48417868460180012181700B4822
:103B1000009901F022FC0021684681700748009955
:103B200001F01BFC02F02CFF02490860042004494C
:103B300008701CBD9001002080010020E8010020D9
:103B40005D0100201CB5044621466846FFF778FD5C
:103B5000062269460348FCF7EFFA01200249087083
:103B60001CBD0000800100205D01002003200149F0
:103B7000087070475D0100200220014908707047FD
:103B80005D0100200A480088401C09490880094856
:103B900080880988884203DB01200749087005E016
:103BA0000120034908800020034908707047000085
:103BB00094010020800100205D01002010B50D4817
:103BC00000780300FEF7DCFE050405080B0E11006B
:103BD00010BDFFF7D1FF09E0FFF7C8FF06E0FFF7D0
:103BE00077FF03E0FFF7CEFF00E000BF00BF00BF9C
:103BF000EEE700005D01002010B5054801680548AA
:103C000088475A2801D1012010BD0020FCE70000A0
:103C1000E86F0008007C000810B503485A21C2680C
:103C20000248904710BD0000E86F0008007C0008C3
:103C300008B51948407900280AD0184800780028AB
:103C400007D10920C00600690007C00F002800D076
:103C500008BD00201149087011490869804700908B
:103C60001048009901608078002803D10D48C07881
:103C700000280FD00B4802214156684601800948B0
:103C8000032141564942684641800748009901F0A6
:103C900064FB00BF00BFDBE79C010020A401002003
:103CA00000700008980100201406002010B50020C4
:103CB0000F4908600F4908600F48006B401C00283E
:103CC00014D10E480068072108430C490860002100
:103CD0001920FEF73FFF1920002805DBC206D20E8F
:103CE00001219140064A116000BF00BF10BD0000D5
:103CF000F0000020F4000020C0FAFF1F006C00401C
:103D000000E100E070B51548006B401C002823D18D
:103D10001348006800281FD000BFEFF3108004464E
:103D200072B600200E490860FDF786F80D48FCF7D2
:103D30007FFF0D4800688003850DE84300040543BC
:103D400029460A48FCF7E2FF09490848001DFCF72C
:103D5000DDFF002C00D162B670BD0000C0FAFF1F6D
:103D6000F000002000F6FF1F006C004000F7FF1F6E
:103D700069E5B5A301B582B00021029800F009F809
:103D8000694601908988084669468979090408438B
:103D90000EBDF3B585B06846407D00280ED168465B
:103DA000817D0174817D4174817D8174008A014629
:103DB0006846807C0004084307B0F0BD6846017D7A
:103DC0000191407D00906846847D0622019951430F
:103DD0000846FF21FCF7F0FAC0B2039001994900B0
:103DE000552203985043081A41004018C0B202906F
:103DF000FF210098081A6043051202990098484371
:103E00000012FF21081A604306120298091A00984E
:103E100041430812FF21081A604307120398030068
:103E2000FEF7AEFD07060B10151A1F051F0000BF99
:103E3000684604744774857418E0684606744474D0
:103E4000857413E068460574447487740EE0684610
:103E500005744674847409E0684607744574847474
:103E600004E0684604744574867400BF00BF694668
:103E7000098A08466946897C090408439CE70000D2
:103E800010B584211048FCF772FA00200F498860B1
:103E900008600F4840688005800D4860FDF79CFB76
:103EA000002000E0401C0B498842FBD302F0A0FB3D
:103EB000FDF7E0FBFDF7B0F900BF0448806800287B
:103EC000FBD002F033FB10BDE8020020DC02002032
:103ED000800002401027000070B53E48456A3E4809
:103EE0000068002802D13C48056071E03B4805604D
:103EF000006839490968884205D33848006836495E
:103F00000968401A06E0344800683549081A334900
:103F10000968401804463348844259D332488442E1
:103F200056D82E4800682C49086030484068401C2C
:103F30002E4948602E48007800281CD02C48007874
:103F4000401E80002B490858A04206D82848007817
:103F5000401E80000858201A06E025480078401EC0
:103F6000800024490858001B0A214843A04202D976
:103F700000201F4908701E490878411C1C4A117016
:103F800081001C4A54501A480078022819DB00208E
:103F90001749087000BF00261748806800280ED116
:103FA00000BF05E08100134A51588E19411CC8B268
:103FB0000228F7DB70081049086002F0F3FB00BF2D
:103FC00000BF0A4840680A2802D901200A498860CF
:103FD00070BD000000100040F8000020FC00002030
:103FE000FFFF000090330000F0870000E80200208F
:103FF0000001002004010020DC02002010B50A4866
:10400000406A0A4988420ED10020074948620120CF
:10401000074908600749086880F3088800BF4868B6
:10402000804700BFFEE710BD40100240EB9C374ABE
:104030000000014000E0FF1F10B5014648788B7872
:104040001B021843024600200CE00B780341DB07FB
:10405000DB0F002B05D0044608340123A340134393
:104060009AB2401C0828F0D3104610BD1CB502F0CF
:1040700087FC4B490968884205D302F081FC484916
:104080000968401A07E002F07BFC454909680022F4
:10409000D243511A40184349096888427FD942489F
:1040A00000884049086002F06BFC3D49086000242C
:1040B0003E4840784006400E062836D006DC030015
:1040C000FEF75EFC06671125282B3067092849D0CA
:1040D00004DC07282CD008285BD12EE00F284FD015
:1040E000882856D141E031488078694608802F48B9
:1040F000407880210840002801DD012000E00020F8
:10410000694688702A48009901F027F942E027485B
:1041100084783FE0254884783CE0244880786946EC
:10412000088037E02148847834E02048847831E002
:104130001E488078694608802CE01C488078F03062
:10414000694608801948407880210840002801DD30
:10415000012000E00020694688701548009901F0B0
:10416000FCF817E01148847814E010488078F030AB
:10417000694608800E48009901F0EFF80AE00EE069
:104180000A4880780949C978090208430549086046
:1041900000E000BF00BF04200649087000BF1CBD3E
:1041A000880100208C0100206001002064010020B3
:1041B000E80100205C01002070B504466200164B47
:1041C000D018164A1168884705466200124BD2186B
:1041D000501C124A116888470002054310480580A8
:1041E000A200104B9A58D01C0C4A1168884705460B
:1041F000A2000C4B9A58101D084A1168884700020B
:1042000028180949088006200849088008480470D1
:1042100001200849087070BD00780008E86F0008A8
:104220006A0100206C01002060010020680100206C
:104230005E0100205C01002010B5084A127892004F
:10424000074B9A58074B1B88D018074A9168884734
:104250000649086003200649087010BD5E01002071
:104260006C01002068010020E86F00086401002054
:104270005C01002002200149087070475C010020A9
:104280000A480088001F0949088008460088042859
:1042900008D307480088001D05490880012005490A
:1042A000087002E000200349087070476A0100208E
:1042B000680100205C01002070B5084C084D06E044
:1042C0000848416920468847FF34FF340234AC4235
:1042D000F6D1FFF737F9FFF79FFC70BD007C0008AF
:1042E000007E0008E86F000800B5014600200A784B
:1042F0001300FEF745FB06120406090C0F120848CE
:104300000CE007480C3009E005480A3006E0044894
:10431000801D03E00248C01D00E000BF00BF00BDDB
:1043200021780000F3B583B006467078B1780902B1
:1043300008430446F07802902046E117C90D091899
:10434000491249060D0C611B029808180121490207
:10435000884246DD002007E0011D715C621B1218D7
:10436000624B9954411CC8B201214902091B491BE7
:104370008142F1DC049A92005D4B9A5850195D4AD3
:1043800051698847002713E05848C15D04988000B0
:10439000574B18584019C01901905648C2680198E7
:1043A000904700205149C855FCF73AFE781C87B267
:1043B000012040028742E7DB002009E081218900DB
:1043C000091B491B0918715C484A1154411CC8B2A9
:1043D0000299FF39FF390239091949198142EDDC87
:1043E0000CE0002007E0011D715C621B12183F4BBE
:1043F0009954411CC8B202998842F4DB30780028F5
:1044000001D1012000E00020C007C00F00286AD0C1
:10441000049A9200364B9A585019364A5169884787
:10442000002713E03148C15D04988000304B1858D4
:104430004019C01901902F48C26801989047FCF7B5
:10444000EFFD00202949C855781C87B201204002A1
:104450008742E7DB0020019019E0019A5200264BC9
:10446000D018244A116888470746019A5200224B07
:10447000D218501C1F4A1168884700020743019850
:1044800040001E490F520198401CC0B20190019893
:104490000528E2DB0298201881B204984000174AF0
:1044A00011521448416914488847002719E07800E0
:1044B000124B195C7800104BC01801900D48C2686F
:1044C0000198904778000D4B185A011278000A4B5A
:1044D000C018401C01900748C26801989047781C9A
:1044E000C7B2052FE3DB05B0F0BD000012040020C9
:1044F0006C010020E86F0008007800080804002024
:10450000F8B506460D46AA002C4B98582C4A51691E
:104510008847AA00294B9A58D01DFF30FA30284A04
:104520005169884700240AE0631CF15CAB00234F0B
:10453000FB581819224BDA689047601CC4B23078D7
:10454000A042F1DC002414E062001E4BD0181C4A8B
:1045500011688847074662001A4BD218501C184A47
:104560001168884700020743600017490F52601C1A
:10457000C4B2052CE8DB30786900134A5052104869
:10458000416910488847002415E063000E4FF95C2C
:1045900063000C4FD8190A4BDA68904763000A4F42
:1045A000FB5A19126300074FDB19581C044BDA68D9
:1045B0009047601CC4B2052CE7DBF8BD6C010020FD
:1045C000E86F0008007800080804002010B50D48C6
:1045D00000780300FEF7D4F9050405080B0E11005E
:1045E00010BDFFF747FE09E0FFF726FE06E0FFF7E4
:1045F0003DFD03E0FFF744FE00E000BF00BF00BF49
:10460000EEE700005C0100200EB5FFF7F7FC00F0BC
:10461000C7FEFFF74BFB3748006880210843354948
:104620000860FCF709FC3448FCF702FB02F080F953
:10463000FCF74EFD01F088F8FCF73CFE00F086F92F
:10464000FFF74AF9FEF71EFF01F0F8FBFDF706FD44
:10465000FDF7F8F94CE0FFF755FB01F0E1FC00F045
:10466000C3F8FFF7E5FAFFF799F9FFF7AFFFFFF798
:10467000A5FAFEF7BBFD02F0A5FA02F089FA17E0F1
:104680006A469279D107C90F6A46908800F046FBC6
:1046900000280AD000BF00F0B5FF0028FBD0174863
:1046A00000F04CFE02F0A0FA02E0144800F046FED2
:1046B00001A9124800F036FE0028E1D110E06A4658
:1046C0000221515E0020105E00F02EFC00BF00F0C1
:1046D00099FF0028FBD00A4800F030FE02F084FA6F
:1046E0006946074800F01EFE0028E8D1FCF798FC58
:1046F000B1E700000058014000FCFF1FE801002066
:104700001406002010B502F0B5F900240CE0A0005A
:1047100009490858401C002804D0A100064A5058F6
:1047200001F0D2FD601CC4B2062CF0DB034800216E
:1047300001600348016010BD0C6F00086C00002090
:1047400068000020FEB506460C460027204601F012
:1047500079FD01200190002512E0A9000C4A505873
:1047600000F020FF00900098002801D0002000E019
:1047700001980743681CC5B201984004000C0190E1
:10478000062DEADB204602F067F9A0003750FEBD97
:104790000C6F000838B500200090002505E0294680
:1047A0006846FFF7CFFF681CC5B2012DF7DB042276
:1047B00069460B48FBF74FFD002801D0012000E0BF
:1047C00000200446002C02D00548009901602346D1
:1047D000012204490248FEF7B1FD0446204638BDD7
:1047E0006C00002068000020FEB5FFF7D3FF002515
:1047F00000200FE08100324A51588200314B9A5814
:1048000051402943002901D0012100E000210D463B
:10481000411CC8B2012801DA002DEBD0002D18D1BF
:1048200000BF02F0A7F8044627480088844203DB53
:1048300025480088201A04E0234800882349081AE4
:10484000001980B2002801D01F48048000BF28460C
:10485000FEBD00242FE0A0001A490F58A0001849FF
:104860000858784002900298002800D121E00126E3
:104870000020019016E00298304000280DD0384604
:104880003040002801D0012000E0002000902146A7
:10489000019A009801F0FEFF00BF0198401CC0B2D1
:1048A0000190760001980628E5DBA00004490F502E
:1048B00000BF601CC4B2012CCDDB2846C8E7000055
:1048C000700000206800002084000020FFFF00002E
:1048D00001460878042812D006DC002816D00128EA
:1048E00009D002282ED108E008280AD010280AD0C2
:1048F000802827D109E0F1207047F220FCE7F3205F
:10490000FAE7F420F8E7F520F6E71CE048780028FD
:1049100008D0022802D0FE2811D101E0F920EBE7EF
:10492000FA20E9E74878022802D0FE2804D101E005
:10493000FB20E1E7FC20DFE700BF00BF00E000BF95
:1049400000BF00E000BF00BF0020D5E71FB535481D
:10495000806835490843334988603449086880478E
:104960000120334948716846FEF75AFE0E22694617
:104970003048FBF79DFC2F48407B062824DDFF20B4
:1049800091302C490870000A487019204001887045
:10499000000AC8704B2000010871000A4871AF215D
:1049A000C90024488171090AC17119208001214977
:1049B0000872000A48727D2000018872000AC872DD
:1049C00006200873042048731A48407B40001949A8
:1049D000085A17490860086800F038F801221204E4
:1049E00008210920C006FEF783F900210220FEF706
:1049F00029F90220002805DBC206D20E01219140D0
:104A00000D4A116000BF00200C49486008200C4985
:104A10008860C86008603C220A490B4800F072FCBC
:104A20001FBD000040100240000208000070000896
:104A30009C010020FA03002000E100E0000001409A
:104A400000040140240600201406002010B504468E
:104A500003480460034881682046884710BD000071
:104A60009C0100200070000810B500201149487119
:104A7000114948688047012010490870020440210C
:104A80000920C006FEF734F9012212041021092082
:104A9000C006FEF72DF90122120410210920C006DC
:104AA000FEF726F90122120480210920C006FEF734
:104AB0001FF910BD9C01002000700008A501002016
:104AC00042202349086248628862C86208634863DA
:104AD0002049086248628862C862086348631E49C8
:104AE000086248628862C862086348631B490862BA
:104AF00048628862C8621A4908624862886215483A
:104B00004038006840210843124940390860124883
:104B100040380068402108430F49403908600F4879
:104B200040380068402108430C49403908600C486F
:104B30004038006840210843094940390860012095
:104B4000800700684021084309060860704700009C
:104B5000400000404004004040140040402000401D
:104B6000402C00400146002901DB642901D90020C6
:104B700070478800014A1058FAE70000586F000893
:104B8000014600200A0992020923DB06D2185B4283
:104B9000D218002A04D001239B02D21A11D104E0BA
:104BA0000A07120F094B98560EE00A07120F0B2A3C
:104BB00002D90020C04303E00A07120F044B9856A5
:104BC00002E00020C04300BF00BF7047BC6F000878
:104BD000CC6F000870B504460D46002D47D025481F
:104BE0002018002804D001281AD002283ED12BE03A
:104BF0002148417B007B401E814203D100201E4999
:104C0000487304E01C48407B401C1B4948731A4908
:104C1000497B4900184A505AFFF718FF002070BD21
:104C20001548417B007B401E814204D01248407BE6
:104C3000401C114948731049497B49000E4A505A9B
:104C4000FFF704FF0020EAE70B48407B002804D070
:104C50000948407B401E084948730749497B490081
:104C6000054A505AFFF7F2FE0020D8E700BF0120A6
:104C7000D5E70000FF9DFFFFFA03002070B5044652
:104C80000E46FF200130844229DD0001844226DAED
:104C9000002515E02846083021460141C807C00F0D
:104CA00000280CD0002E05D069000E4A505A00F0A2
:104CB000A1FC04E069000B4A505A01F0C5FE6D1CCE
:104CC000082DE7D3002E03D0E0B200F093FC02E001
:104CD000E0B201F0B9FE00F095FC002070BD0120AB
:104CE000FCE700007400002070B504460D4629461C
:104CF000204600F0A5FA002800D170BD29462046C4
:104D0000FFF7BCFF002800D1F7E729462046FFF750
:104D100061FF002800D1F0E70120EEE770B50446FE
:104D20000D462946204600F067FA002801D10120EF
:104D300070BD2946204600F00CF8002800D1F7E7A6
:104D40002946204600F004F9002800D1F0E70120B0
:104D5000EEE770B504460D462946204600F00CF8F3
:104D6000002800D170BD29462046FFF7BDFF00286E
:104D700000D1F7E70120F5E770B505460C46F42DA4
:104D800075D004DCF22D09D0F32D71D172E0F52D30
:104D90006FD05E4828180028F7D118E0002C0ED0FC
:104DA0005B4800780121084359490870084600789B
:104DB00007280AD1574858494862FDF77FFF5448F1
:104DC00000784008400052490870012070BD002C56
:104DD00045D04F480078022108434D4908700846E5
:104DE0000078072804D14B484B494862FDF766FF1D
:104DF0004A48417B007B401E814203D10020474945
:104E0000487304E04548407B401C4449487343498B
:104E1000497B4900414A505AFFF718FE3F48407B02
:104E2000460080193E4E801983783C48407B4600FE
:104E300080193B4E801942783848407B46008019E3
:104E4000374E315CFF2000F06FFD0322FF21F5316A
:104E5000FF2000F08BFDFF2000F02AFD05E02C482C
:104E60000078022188432A4908700020AEE718E044
:104E700047E02DE0002C0CD02A480078012108439F
:104E80002849087008460078032808D101F096F8F0
:104E900005E02448007840084000224908700120BD
:104EA00094E7002C0CD01F480078022108431D49CC
:104EB000087008460078032808D101F07FF805E063
:104EC00018480078022188431649087001207DE7C0
:104ED000002C0ED00E480078042108430C490870BD
:104EE0000846007807280AD10A480B494862FDF7AE
:104EF000E5FE074800780421884305490870012031
:104F000064E700BF00BF012060E70000FF9DFFFFD6
:104F1000D3010020EB9C374A40100240FA030020E6
:104F2000C0010020D2010020024607484270130A47
:104F30008370C1700B0A0371044800781023184372
:104F4000024B18700120704736000020E800002056
:104F5000FEB504460D4601200190042C7EDBA42CF6
:104F60007CDC06210091002D3DD0002013E09C49FF
:104F7000095CA14200D111E09949095C002908D1DE
:104F800097490C549749097801221143954A1170A9
:104F900004E0411CC8B200998842E8DB00BF0199D7
:104FA000002965D00099884262D12146E3175B0F42
:104FB0005B18DE108C4B9B5D2246E617760FB61809
:104FC000F610F600A71B0126BE403343E617760F06
:104FD0007618F710844EF35582490978022211435E
:104FE000804A117044E000200FE07D49095CA14235
:104FF00009D100227A490A547A49097801221143D9
:10500000784A117003E0411CC8B20628EDDB00BFEE
:10501000E3175B0F1B19DE10734B9B5D2146E617F0
:10502000760F7618F610F600A71B0126BE40334017
:10503000002B1DD0E3175B0F5B18DE106A4B9B5DE6
:105040002246E617760FB618F610F600A71B0126C3
:10505000BE40B343E617760F761800E009E0F7107C
:10506000614EF3555F490978022211435D4A117080
:10507000B4E0E02C21DBE72C1FDC002D0BD05848DE
:10508000801E40782146E03901228A40104354496D
:10509000891E48700AE05248801E40782146E03957
:1050A00001228A4090434E49891E48704D4800783D
:1050B000012108434B49087090E0A82C16DBBE2C58
:1050C00014DC002D07D0E0B2FBF7B2FF474948706F
:1050D000000A887003E00021444841708170414813
:1050E0000078042108433F49087077E0A52C1DDBB8
:1050F000A72C1BDC002D09D03D4840782146A5395E
:1051000001228A4010433A49487008E03848407804
:105110002146A53901228A409043354948703148DB
:105120000078082108432F49087057E0F12C22DB52
:10513000F82C20DC00212F4841708170C170017172
:10514000002D08D000782146F13901228A40104311
:105150002849087008E0274800782146F1390122E3
:105160008A409043234908701E4800781021084364
:105170001C49087032E0F92C2EDBFC2C2CDC0021C1
:105180001C4841708170C1700171002D0ED0052145
:1051900041562046F938002802DD0020C04300E0D7
:1051A0000120081840B2134948710EE0114805214A
:1051B00041562046F938002802DD0020C04300E0B7
:1051C0000120081A40B20B494871064800781021A6
:1051D00008430449087001E00020FEBD0120FCE7FF
:1051E0001B000020E80000202300002031000020E8
:1051F000340000203600002070B504460D46002D16
:105200001BD063200002844209DB001D844206DCBF
:10521000011F611AC8B2FEF7CFFF002070BD192030
:105220008002844209DB001D844206DC011F611AF2
:10523000C8B2FEF787FC0020F0E70120EEE700008F
:1052400070B504460D46002D4AD0264820180300AC
:10525000FDF796FB0F090D1115191D2125292D317B
:1052600035393D41450000F011FF002070BD00F0D0
:10527000A5FE0020FAE700F0B9FE0020F6E700F0F6
:1052800033FD0020F2E700F0A9FC0020EEE700F07B
:105290005FFD0020EAE700F0D5FC0020E6E700F023
:1052A00085FD0020E2E700F0F9FC0020DEE700F0D9
:1052B00067FD0020DAE700F0DDFC0020D6E700F013
:1052C00027FD0020D2E700F09DFC0020CEE700F093
:1052D0002FFD0020CAE700F0A5FC0020C6E700BFB4
:1052E0000120C3E7E087FFFF02465318FF2B00DDD4
:1052F000FF2358B270470246531A002B00DA0023EE
:10530000D8B27047002803D0002901D0002A00D16C
:105310007047816001604160531E9B005B18C36051
:1053200000BFF5E7024613685068984204D0506801
:1053300000680860012070470020FCE702684168AF
:10534000914209D0C2684168914202D181684160AE
:1053500002E04168091D416070470246D368106849
:10536000984203D193685068984208D0D368106877
:10537000984206D01068001D5368984201D1002061
:10538000704710680160D3681068984202D1906835
:10539000106002E01068001D10600120F0E70000BE
:1053A00010B500206F49C86048610120886100BFC6
:1053B0006C4880690028FBD16B486C490860032069
:1053C0006B4908620C2048626A48C0680005000DFD
:1053D0006949884205D16748C0680004000F002869
:1053E00044D100206549C86300BF6448403000696B
:1053F000022108400028F8D0002000E0401C60494D
:105400008842FBD301205D49C86300BF5B48403040
:105410000069C007C00F0028F8D0002000E0401C41
:1054200057498842FBD3432054494039C863481543
:105430005249086010204860162048610120C86069
:10544000FF205630086103204C494031C8600020DD
:1054500000E0401C6428FCD3002048494031C8606B
:1054600046494039C8634549C86012E04348403066
:1054700000680121084341494031086001203F494B
:10548000C86300BF3D48403000698007800F012895
:10549000F8D111203B49086000203249C860022041
:1054A00048610120886100204862012008620920CB
:1054B000C8610120486234482C4908602F484038B0
:1054C000806A400840002D494039886201F030FA76
:1054D0002848C030006B401C00281AD12B48406877
:1054E0002B4988420CD12948008828494988C9435A
:1054F00089B2884204D1254800882049403148605B
:1055000018484030006A08210840002801D0FEF702
:10551000B7FC14484030C0690121084311494031AB
:10552000C86100201249086248620E484030806815
:10553000022108430B49403188601648006816492B
:1055400008400E4940314968090208431149086082
:10555000124848601248006A012108431049086255
:1055600010BD00000010024080841E0000000020DA
:105570000070004000FAFF1FB50900004000024023
:105580001027000000200240006CDC0200F7FF1F23
:1055900069E5B5A3006C0040FF00FCFF7FBB7820ED
:1055A000000001400146481C00280BD00809800279
:1055B0000922D206801800690A07120FD040C007DE
:1055C000C00F70470020FCE7532181705221C17049
:1055D00011210171002141712A2181711421C171B0
:1055E0007047000001468801014A8018704700009A
:1055F000007A000810B5044601212046FFF7A8FCF8
:1056000010BD000010B500243D480078C007C00F51
:1056100000280ED008223B49822000F025FE0028F9
:105620005AD03748007840084000354908700124B6
:1056300052E0334800780221084000280ED01022A2
:105640003149822000F010FE002845D02C48007817
:10565000022188432A49087001243DE02848007847
:105660000421084000280ED003222849822000F09F
:10567000FBFD002830D022480078042188432049CF
:105680000870012428E01E480078082108400028FE
:105690000ED002221E49822000F0E6FD00281BD019
:1056A000174800780821884315490870012413E041
:1056B000134800781021084000280DD00722154912
:1056C000812000F0D1FD002806D00D48007810217F
:1056D00088430B4908700124002C04D000200E4997
:1056E0000860012010BD0C480068401C0A49086091
:1056F0000A49884201D90120F4E70020F2E70000BE
:10570000E8000020190000202100002031000020C6
:105710003400002036000020EC00002050C30000C0
:105720000146002003E00A5CD2430A54401C412891
:10573000F9D370470146012003E00A5CD2430A54C2
:10574000401C4128F9D3704770B5524880685249CF
:1057500008435049886000F0C1FF002474E0A000B5
:105760004E490858401C00286DD0A1004B4A5058A3
:10577000FFF706FA0546FFF7F5F9A100484A505031
:10578000A00011460858002813D0A200434B9A5C91
:1057900013071B0F01229A4091B2A2003F4B9A5867
:1057A000120992020923DB06D0183E4AFBF750FB90
:1057B00013E0A200394B9A5C13071B0F01229A4099
:1057C00091B2A200354B9A58120992020923DB06C6
:1057D000D01801225204FBF73BFB0220A100304A03
:1057E0005158090A09024860A1005158090A0902E2
:1057F0000861FE20A1005158090A090248610020F1
:10580000A1005158090A09028861A1005158090AEA
:1058100009020866A1005158090A09024866A10058
:105820005158090A09028866A1005158090A09025B
:10583000C866A1005158090A09020867A100515819
:10584000090A09024867641C062C88DB022041070C
:1058500048600861FE2048610020886112490862A2
:1058600048628862C862086348630806406801218C
:1058700008438907486001210E20FDF72FF90E200B
:10588000002805DBC206D20E01219140074A1160B3
:1058900000BF70BD4010024000E20300406F0008EE
:1058A00098020020010001204000004000E100E0DB
:1058B00010B50246002130E01C204843194BC018A7
:1058C000007C904227D11C204843C01880680028E3
:1058D00000D110BD1C204843124B18581C234B43C9
:1058E000104C1B199B6858434000401C1C234B4321
:1058F0001B1958601C2048432346C0188068FF28A5
:1059000007D11C2048431858401C1C234B431B192B
:1059100058600120DDE7481CC1B20029CCD000202E
:10592000D7E70000CC00002070B504460D460021EA
:1059300016E01C2048430C4E8019007CA0420DD17B
:105940001C204843801905761C2048438019427664
:105950001C20484380198376012070BD481CC1B2C9
:105960000029E6D00020F8E7CC00002070B50346FF
:105970000C4600211BE01C2048430F4D4019007CC1
:10598000984212D11C2048432C501C2048434019F7
:10599000826000251C204843074E8019C5601C20EA
:1059A000484380194574012070BD481CC1B20029CC
:1059B000E1D00020F8E70000CC000020F8B5054653
:1059C0000024F9E01C2060437E494018406800280C
:1059D00072D01C2060434018C06800280CD01C21E5
:1059E0006143784A8918C86800F091FF1C2161431F
:1059F000744A515888423BD31C2060437149401877
:105A0000407C002801D1012100E000211C206043DE
:105A10006C4A8018417400F0B3FF1C216143694A4D
:105A20008918C8601C2060431146401841681C203A
:105A30006043105881420DD31C206043114640182A
:105A400041681C2060431058091A1C2060438018CC
:105A500041600DE000211C2060435A4A80184160DB
:105A60001C206043801841741C2060438018C16072
:105A70001C20604353494018406800282FD11C2047
:105A8000604340184069002809D01C2262430B463D
:105A9000D218107C1C226243D218516988471C20FE
:105AA000604348494018007CFF2806D10022114677
:105AB000104600F033FA11E071E01C2060434149C8
:105AC0004018007C062809DA1C2161433D4A8918E8
